:020000040800F2
:10000000002800202D190008BD180008C31800089A
:10001000C9180008CF180008D51800080000000013
:10002000000000000000000000000000DB180008D5
:10003000E718000800000000F3180008FF18000887
:100040007519000875190008751900087519000858
:100050007519000875190008751900087519000848
:100060007519000875190008751900087519000838
:100070007519000875190008751900087519000828
:100080007519000875190008751900087519000818
:100090007519000875190008751900087519000808
:1000A00075190008751900087519000875190008F8
:1000B0000D190008751900080000000075190008E6
:1000C0007519000800000000000000007519000804
:1000D00000000000751900087519000800000000F4
:1000E000751900087519000875190008000000004E
:1000F0000000000000000000000000000000000000
:0C01000000000000000000005FF808F1A3
:10010C0010B5054C237833B9044B13B10448AFF345
:10011C0000800123237010BD7C0000200000000033
:10012C00CC2F000808B5034B1BB103490348AFF3B0
:10013C00008008BD0000000080000020CC2F0008CB
:10014C0080B483B000AF7860094A7B6852F82330E2
:10015C00012B06D1064A7B68002142F823100123AB
:10016C0000E0002318460C37BD4680BC704700BF2A
:10017C009800002080B483B000AF7860044A7B689C
:10018C00012142F8231000BF0C37BD4680BC7047DC
:10019C009800002080B483B000AF7860044A7B687C
:1001AC00012142F8231000BF0C37BD4680BC7047BC
:1001BC00B800002080B483B000AF7860044A7B683C
:1001CC00012142F8231000BF0C37BD4680BC70479C
:1001DC00C800002080B582B000AF00237B60A7E090
:1001EC00584A7B6852F8232057497B6841F82320F2
:1001FC00564A7B6852F8232052497B6841F82320E9
:10020C00534A7B6852F823309BB21946514801F08F
:10021C0097FE034619464D4A7B6842F823104E4A16
:10022C007B6852F82330012B0ED14C4A7B6852F874
:10023C002330002B08DD494A7B6852F823305A1EC4
:10024C0046497B6841F82320444A7B6852F82330A6
:10025C00002B04D1404A7B68002142F82310394A14
:10026C007B6852F8232039497B6851F823309A4235
:10027C005BD1344A7B6852F8232033497B6851F8B0
:10028C0023309A4251D1304A7B6852F823203449AA
:10029C007B6851F823309A4230D02B4A7B6852F855
:1002AC0023202F497B6841F823202D4A7B6852F884
:1002BC002330002B39D1284A7B6852F82330012B8C
:1002CC0002D17868FFF766FF234A7B6852F8233027
:1002DC00002B2AD1234A7B684FF4967142F82310E5
:1002EC001E4A7B68322142F823107868FFF742FFE0
:1002FC00194A7B68012142F8231016E0194A7B68E1
:10030C0052F823305A1E17497B6841F82320154AAE
:10031C007B6852F82330002B07D17868FFF74AFF2F
:10032C000F4A7B68012142F823107B6801337B6004
:10033C007B68032B7FF754AF00BF00BF0837BD4667
:10034C0080BD00BF200000203000002010000020E5
:10035C000000002000080140A800002060000020E0
:10036C00400000205000002080B500AF974B1B6868
:10037C00012B40F08981964B1B68032B6BD801A293
:10038C0052F823F0A1030008AF030008EB030008A8
:10039C00270400088E4B01221A60642001F0B0F88B
:1003AC0060E08C4B1B68012B57D100F049FD8A4B48
:1003BC001B688A4A1360884B1B68013B864A136092
:1003CC00854B1B68002B06D1854B1B68824A13603A
:1003DC007F4B02221A60642001F092F83DE07D4BC5
:1003EC001B68012B3BD100F057FD7E4B1B687B4AF1
:1003FC0013607C4B1B68013B7A4A1360794B1B687A
:10040C00002B06D1784B1B68764A1360704B032285
:10041C001A60642001F074F821E06E4B1B68012B0C
:10042C001FD100F023FD714B1B686C4A13606F4B9E
:10043C001B68013B6D4A13606C4B1B68002B06D18B
:10044C006B4B1B68694A1360614B01221A60642074
:10045C0001F056F805E000BF04E000BF02E000BF69
:10046C0000E000BF634B1B68032B6CD801A252F851
:10047C0023F000BF910400089F040008DB0400086F
:10048C00170500085B4B02221A60642001F04CF83F
:10049C0060E0594B1B68012B57D100F013FD574BF3
:1004AC001B684E4A5360554B1B68013B534A136003
:1004BC00524B1B68002B06D1494B1B684F4A1360EB
:1004CC004C4B02221A60642001F02EF83DE04A4B9E
:1004DC001B68012B3BD100F021FD494B1B683F4AA7
:1004EC005360474B1B68013B454A1360444B1B68E8
:1004FC00002B06D13C4B1B68414A13603D4B032239
:10050C001A60642001F010F821E03B4B1B68012BB2
:10051C001FD100F0EDFC3B4B1B68304A5360394B4C
:10052C001B68013B374A1360364B1B68002B06D106
:10053C002F4B1B68334A13602E4B01221A60642028
:10054C0000F0F2FF05E000BF04E000BF02E000BFD6
:10055C0000E000BF2C4B1B68022B20D0022B31DC9F
:10056C00002B02D0012B07D02CE0274B01221A6064
:10057C00642000F0EDFF4CE0244B1B68012B23D1D1
:10058C00164B1B68154A52681146184600F020FE9F
:10059C001D4B02221A60322000F0DAFF14E01B4BD4
:1005AC001B68012B34D10D4B1B680C4A5268114649
:1005BC00184600F049FE144B01221A60322000F05C
:1005CC00C7FF25E000BF24E000BF22E0E0000020D0
:1005DC00E40000204001002024010020D80000206D
:1005EC0018010020280100201C0100202C010020F3
:1005FC0020010020E80000204801002030010020EC
:10060C003401002038010020EC00002050010020B3
:10061C0000BF234B1B68042B38D801A252F823F0DF
:10062C0041060008990600085506000869060008EE
:10063C007D0600080020FFF783FD0346012B27D120
:10064C00184B02221A6023E00020FFF779FD0346C5
:10065C00012B1FD1134B03221A601BE00020FFF764
:10066C006FFD0346012B17D10E4B04221A6013E0C9
:10067C000020FFF765FD0346012B02D1094B012237
:10068C001A6000F067FB08E000BF06E000BF04E062
:10069C0000BF02E000BF00E000BF00BF80BD00BF94
:1006AC00F0000020E000002080B500AFA14B1B68DB
:1006BC00022B40F0FC80A04B1B68002B02D0012BBE
:1006CC0007D010E09C4B01221A60012000F054FF6F
:1006DC0009E09A4B1B68012B04D100F035FC192062
:1006EC0000F04AFF00BF964B1B68022B20D0022B58
:1006FC0031DC002B02D0012B07D02CE0904B0122D7
:10070C001A60012000F04CFF2AE08E4B1B68012B75
:10071C0023D1884B1B688C4A12681146184600F08E
:10072C0057FD874B02221A60192000F039FF14E0A4
:10073C00844B1B68012B12D17E4B1B68824A1268BA
:10074C001146184600F080FD7D4B01221A601920DD
:10075C0000F026FF03E000BF02E000BF00E000BF96
:10076C007A4B1B68042B00F2928001A252F823F002
:10077C00910700089B080008CB0700082D0800080B
:10078C008F0800080120FFF7DBFC0346012B07D183
:10079C006E4B02221A606C4B1B6801336A4A136061
:1007AC000220FFF7CDFC0346012B72D1674B0322CD
:1007BC001A60654B1B68013B634A136069E00120BA
:1007CC00FFF7BEFC0346012B0BD15F4B1B680133BB
:1007DC005D4A13605C4B1B68632B02DD5A4B632232
:1007EC001A600220FFF7ACFC0346012B0ED1564BCE
:1007FC001B68013B544A1360534B1B68002B02DCF3
:10080C00514B01221A60514B03221A600320FFF74F
:10081C0097FC0346012B3ED14C4B04221A603AE064
:10082C000120FFF78DFC0346012B0ED1464B1B68B4
:10083C000133454A1360444B1B68632B02DD424B6A
:10084C0063221A60414B02221A600220FFF778FCE7
:10085C000346012B0BD13C4B1B68013B3A4A1360FE
:10086C00394B1B68002B02DC374B01221A6003202A
:10087C00FFF766FC0346012B0FD1344B04221A60A0
:10088C000BE02C4B01221A6000F064FA06E000BF6A
:10089C0004E000BF02E000BF00E000BF0020FFF753
:1008AC004FFC0346012B02D1224B03221A60214B31
:1008BC001B68032B40F01581254B1B68002B02D0C5
:1008CC00012B07D010E0224B01221A60012000F00E
:1008DC007BFE09E01F4B1B68012B04D100F056FB7B
:1008EC00192000F071FE00BF1B4B1B68022B39D086
:1008FC00022B4ADC002B02D0012B07D045E0164B13
:10090C0001221A60012000F073FE43E0134B1B68B8
:10091C00012B3CD1074B1B68114A12681146184633
:10092C0000F056FC0C4B02221A60192000F060FEFD
:10093C002DE000BFE0000020F40000205801002052
:10094C00F80000206001002018010020FC000020AD
:10095C00000100206801002004010020700100202B
:10096C001C010020A44B1B68012B12D1A34B1B684C
:10097C00A34A12681146184600F066FCA14B0122EE
:10098C001A60192000F034FE03E000BF02E000BF43
:10099C0000E000BF9C4B1B68042B00F2928001A26C
:1009AC0052F823F0C5090008CF0A0008FF09000817
:1009BC00610A0008C30A00080120FFF7C1FB0346C7
:1009CC00012B07D1904B02221A608D4B1B6801330F
:1009DC008B4A13600220FFF7B3FB0346012B72D145
:1009EC00894B03221A60864B1B68013B844A1360B7
:1009FC0069E00120FFF7A4FB0346012B0BD1804BD0
:100A0C001B6801337E4A13607D4B1B68632B02DD30
:100A1C007B4B63221A600220FFF792FB0346012BEB
:100A2C000ED1774B1B68013B754A1360744B1B68E6
:100A3C00002B02DC724B01221A60734B03221A60EA
:100A4C000320FFF77DFB0346012B3ED16E4B0422A6
:100A5C001A603AE00120FFF773FB0346012B0ED11D
:100A6C00674B1B680133664A1360654B1B68632B2D
:100A7C0002DD634B63221A60634B02221A60022070
:100A8C00FFF75EFB0346012B0BD15D4B1B68013B53
:100A9C005B4A13605A4B1B68002B02DC584B01223B
:100AAC001A600320FFF74CFB0346012B0FD1564B6A
:100ABC0004221A600BE0514B01221A6000F04AF933
:100ACC0006E000BF04E000BF02E000BF00E000BF92
:100ADC000020FFF735FB0346012B02D1474B0422C4
:100AEC001A60464B1B68042B40F01681474B1B6861
:100AFC00002B02D0012B07D010E0444B01221A60CE
:100B0C00012000F089FD09E0414B1B68012B04D149
:100B1C0000F05EFA192000F07FFD00BF3D4B1B6812
:100B2C00022B20D0022B31DC002B02D0012B07D062
:100B3C002CE0384B01221A60012000F081FD2AE0E4
:100B4C00354B1B68012B23D12C4B1B68334A126885
:100B5C001146184600F03CFB2E4B02221A6019205D
:100B6C0000F06EFD14E02C4B1B68012B12D1234BB3
:100B7C001B682A4A12681146184600F065FB254B83
:100B8C0001221A60192000F05BFD03E000BF02E0B7
:100B9C0000BF00E000BF224B1B68042B00F2AA80B0
:100BAC0001A252F823F000BFC90B0008010D000888
:100BBC00310C0008930C0008F50C00080120FFF71D
:100BCC00BFFA0346012B07D1154B02221A60134BB7
:100BDC001B680133114A13600220FFF7B1FA034678
:100BEC00012B40F089800E4B03221A600B4B1B68C3
:100BFC00013B0A4A13607FE070010020E0000020F6
:100C0C001C01002004010020080100200C01002020
:100C1C00780100201001002080010020200100201C
:100C2C00140100200120FFF78BFA0346012B0BD196
:100C3C003A4B1B680133394A1360384B1B68632BE2
:100C4C0002DD364B63221A600220FFF779FA034665
:100C5C00012B0ED1314B1B68013B304A13602F4BDB
:100C6C001B68002B02DC2D4B01221A602C4B03223B
:100C7C001A600320FFF764FA0346012B3ED1284B80
:100C8C0004221A603AE00120FFF75AFA0346012BBE
:100C9C000ED1224B1B680133204A13601F4B1B687B
:100CAC00632B02DD1D4B63221A601D4B02221A605E
:100CBC000220FFF745FA0346012B0BD1174B1B689B
:100CCC00013B164A1360154B1B68002B02DC134BBF
:100CDC0001221A600320FFF733FA0346012B0FD1D0
:100CEC000F4B04221A600BE00E4B01221A6000F02D
:100CFC0031F806E000BF04E000BF02E000BF00E0F6
:100D0C0000BF0020FFF71CFA0346012B04D1054B52
:100D1C0001221A6000F01EF800BF80BD20010020E7
:100D2C0014010020E000002080B400AF064B192213
:100D3C001A60064B12221A60054B03221A6000BF80
:100D4C00BD4680BC704700BF180100201C0100206C
:100D5C002001002080B400AF224B01221A60224BEC
:100D6C0000221A60214B00221A60214B00221A60CB
:100D7C00204B00221A60204B00221A601F4B0022CD
:100D8C001A601F4B00221A601E4B00221A601E4B69
:100D9C0000221A601D4B00221A601D4B00221A60A3
:100DAC001C4B00221A601C4B00221A601B4B1B6848
:100DBC001B4A13601B4B1B681B4A13601B4B1B68A5
:100DCC001B4A1360154B1B681A4A1360154B1B68A2
:100DDC00194A1360154B1B68184A136000BFBD46B7
:100DEC0080BC7047E0000020E4000020E8000020F8
:100DFC00EC000020F0000020F4000020F80000209F
:100E0C00FC0000200001002004010020080100204B
:100E1C000C010020100100201401002018010020FA
:100E2C00240100201C0100202801002020010020AA
:100E3C002C0100203001002034010020380100205A
:100E4C0080B500AF00222021074801F090F8012264
:100E5C008021054801F08BF801224021024801F065
:100E6C0086F800BF80BD00BF0008014080B500AF10
:100E7C0001222021074801F07AF80122802105483F
:100E8C0001F075F800224021024801F070F800BF13
:100E9C0080BD00BF0008014080B500AF01222021B9
:100EAC00074801F064F800228021054801F05FF842
:100EBC0001224021024801F05AF800BF80BD00BF5A
:100ECC000008014080B500AF00220421074801F062
:100EDC004EF801221021054801F049F801220821A1
:100EEC00024801F044F800BF80BD00BF000801407B
:100EFC0080B500AF01220421074801F038F8012227
:100F0C001021054801F033F800220821024801F0B5
:100F1C002EF800BF80BD00BF0008014080B500AFB7
:100F2C0001220421074801F022F800221021054873
:100F3C0001F01DF801220821024801F018F800BF49
:100F4C0080BD00BF0008014080B500AF20210E48D5
:100F5C0001F025F804210C4801F021F80122802130
:100F6C00094801F004F801221021074800F0FFFFA6
:100F7C0001224021044800F0FAFF01220821024816
:100F8C0000F0F5FF00BF80BD0008014080B500AF48
:100F9C0080210E4801F003F810210C4800F0FFFFEF
:100FAC0001222021094800F0E2FF01220421074818
:100FBC0000F0DDFF01224021044800F0D8FF01229F
:100FCC000821024800F0D3FF00BF80BD000801409B
:100FDC0080B500AF40210E4800F0E1FF08210C481D
:100FEC0000F0DDFF01228021094800F0C0FF012242
:100FFC001021074800F0BBFF01222021044800F01B
:10100C00B6FF01220421024800F0B1FF00BF80BDF1
:10101C000008014080B582B000AF7860314A7B682F
:10102C0013441B7803F00103DBB21A4601212E484E
:10103C0000F09DFF2B4A7B6813441B785B08DBB2E6
:10104C0003F00103DBB21A460221274800F08FFFA0
:10105C00244A7B6813441B789B08DBB203F0010322
:10106C00DBB21A460421204800F081FF1D4A7B6840
:10107C0013441B78DB08DBB203F00103DBB21A4626
:10108C000821194800F073FF164A7B6813441B783B
:10109C001B09DBB203F00103DBB21A461021124824
:1010AC0000F065FF0F4A7B6813441B785B09DBB2C9
:1010BC0003F00103DBB21A4620210B4800F057FF66
:1010CC00084A7B6813441B789B09DBB203F00103CD
:1010DC00DBB21A464021044800F049FF00BF083734
:1010EC00BD4680BDF42F0008000C014080B582B0D5
:1010FC0000AF7860344A7B6813441B7803F001031B
:10110C00DBB21A468021314800F031FF2E4A7B6851
:10111C0013441B785B08DBB203F00103DBB21A4605
:10112C004FF48071294800F022FF274A7B68134452
:10113C001B789B08DBB203F00103DBB21A464FF4B9
:10114C000071224800F013FF1F4A7B6813441B7880
:10115C00DB08DBB203F00103DBB21A464FF480610B
:10116C001A4800F004FF184A7B6813441B781B09CB
:10117C00DBB203F00103DBB21A464FF400611348F3
:10118C0000F0F5FE104A7B6813441B785B09DBB258
:10119C0003F00103DBB21A464FF480510B4800F008
:1011AC00E6FE094A7B6813441B789B09DBB203F00B
:1011BC000103DBB21A464FF40051044800F0D7FE8D
:1011CC0000BF0837BD4680BDF42F0008000C01405D
:1011DC0080B582B000AF7860396000224FF4807126
:1011EC00164800F0C4FE01224FF40071134800F0C1
:1011FC00BEFE7B68124A82FB03129210DB17D31AD5
:10120C001846FFF707FF00224FF400410D4800F08D
:10121C00AEFE01224FF480410A4800F0A8FE3B6864
:10122C00074A82FB03129210DB17D31A1846FFF7FA
:10123C005DFF00BF0837BD4680BD00BF0008014000
:10124C0067666666000C014080B582B000AF7860BE
:10125C00396001224FF480711B4800F088FE002297
:10126C004FF40071184800F082FE7A68174B83FB2C
:10127C0002139910D317C91A0B469B000B445B0041
:10128C00D11A0846FFF7C6FE01224FF40041104860
:10129C0000F06DFE00224FF480410D4800F067FE17
:1012AC003A680A4B83FB02139910D317C91A0B46E1
:1012BC009B000B445B00D11A0846FFF717FF00BFD9
:1012CC000837BD4680BD00BF0008014067666666F2
:1012DC00000C014080B500AF00F048FB00F012F8A4
:1012EC0000F098F800F04AF8054801F0A9FAFFF769
:1012FC001BFDFFF72FFDFFF737F8FFF7D5F9FAE7DE
:10130C008C01002080B590B000AF07F118032822A3
:10131C000021184601F04CFE3B1D00221A605A6059
:10132C009A60DA601A610223BB610123BB6210234D
:10133C00FB6200237B6307F11803184600F048FE9C
:10134C000346002B01D000F0D5F80F237B6000235F
:10135C00BB600023FB6000233B6100237B613B1DD2
:10136C000021184601F0B4F80346002B01D000F020
:10137C00C1F800BF4037BD4680BD000080B586B0C7
:10138C0000AF07F1080300221A605A609A60DA6015
:10139C003B4600221A605A601D4B4FF080421A6087
:1013AC001B4B41F63F725A60194B00229A60184B46
:1013BC000922DA60164B00221A61154B00229A6141
:1013CC00134801F0EDF90346002B01D000F092F820
:1013DC004FF48053BB6007F1080319460C4801F029
:1013EC0083FB0346002B01D000F084F800233B6004
:1013FC0000237B603B461946054801F04BFD034634
:10140C00002B01D000F076F800BF1837BD4680BD28
:10141C008C01002080B586B000AF07F108030022D4
:10142C001A605A609A60DA60294B9B69284A43F02B
:10143C0004039361264B9B6903F004037B607B6878
:10144C00234B9B69224A43F008039361204B9B6911
:10145C0003F008033B603B6800224FF47F711D488A
:10146C0000F085FD00224FF6FF711B4800F07FFD58
:10147C004FF47F73BB600123FB6000233B610223AD
:10148C007B6107F108031946124800F0DFFB4FF6A9
:10149C00FF73BB600123FB6000233B6102237B6174
:1014AC0007F1080319460C4800F0D0FB4FF47053B9
:1014BC00BB600023FB6001233B6107F10803194665
:1014CC00044800F0C3FB00BF1837BD4680BD00BF09
:1014DC000010024000080140000C014080B582B0B1
:1014EC0000AF786000F0C0F8FEF774FE00BF08375C
:1014FC00BD4680BD80B400AF72B600BFFEE70000F1
:10150C0080B483B000AF7860054A7B681360054BEC
:10151C0000221A6000BF0C37BD4680BC704700BF6C
:10152C003C0100204001002080B483B000AF786003
:10153C00054A7B681360054B00221A6000BF0C370C
:10154C00BD4680BC704700BF44010020480100200C
:10155C0080B483B000AF7860054A7B681360054B9C
:10156C0000221A6000BF0C37BD4680BC704700BF1C
:10157C004C0100205001002080B483B000AF786093
:10158C00054A7B681360054B00221A6000BF0C37BC
:10159C00BD4680BC704700BF54010020580100209C
:1015AC0080B483B000AF7860054A7B681360054B4C
:1015BC0000221A6000BF0C37BD4680BC704700BFCC
:1015CC005C0100206001002080B483B000AF786023
:1015DC00054A7B681360054B00221A6000BF0C376C
:1015EC00BD4680BC704700BF64010020680100202C
:1015FC0080B483B000AF7860054A7B681360054BFC
:10160C0000221A6000BF0C37BD4680BC704700BF7B
:10161C006C0100207001002080B483B000AF7860B2
:10162C00054A7B681360054B00221A6000BF0C371B
:10163C00BD4680BC704700BF7401002078010020BB
:10164C0080B483B000AF7860054A7B681360054BAB
:10165C0000221A6000BF0C37BD4680BC704700BF2B
:10166C007C0100208001002080B400AF514B1B682E
:10167C00002B0BDD4F4B1B68013B4E4A13604D4B4F
:10168C001B68002B02D14C4B01221A604B4B1B6880
:10169C00002B0BDD494B1B68013B484A1360474B41
:1016AC001B68002B02D1464B01221A60454B1B686C
:1016BC00002B0BDD434B1B68013B424A1360414B33
:1016CC001B68002B02D1404B01221A603F4B1B6858
:1016DC00002B0BDD3D4B1B68013B3C4A13603B4B25
:1016EC001B68002B02D13A4B01221A60394B1B6844
:1016FC00002B0BDD374B1B68013B364A1360354B17
:10170C001B68002B02D1344B01221A60334B1B682F
:10171C00002B0BDD314B1B68013B304A13602F4B08
:10172C001B68002B02D12E4B01221A602D4B1B681B
:10173C00002B0BDD2B4B1B68013B2A4A1360294BFA
:10174C001B68002B02D1284B01221A60274B1B6807
:10175C00002B0BDD254B1B68013B244A1360234BEC
:10176C001B68002B02D1224B01221A60214B1B68F3
:10177C00002B0BDD1F4B1B68013B1E4A13601D4BDE
:10178C001B68002B02D11C4B01221A601B4B1B68DF
:10179C00002B0BDD194B1B68013B184A1360174BD0
:1017AC001B68002B02D1164B01221A6000BFBD46EC
:1017BC0080BC70473C010020400100204401002007
:1017CC00480100204C010020500100205401002051
:1017DC00580100205C010020600100206401002001
:1017EC00680100206C0100207001002074010020B1
:1017FC00780100207C010020800100208401002061
:10180C008801002080B485B000AF154B9B69144A49
:10181C0043F001039361124B9B6903F00103BB601E
:10182C00BB680F4BDB690E4A43F08053D3610C4B02
:10183C00DB6903F080537B607B680A4B5B68FB6061
:10184C00FB6823F0E063FB60FB6843F08063FB60A4
:10185C00044AFB68536000BF1437BD4680BC704718
:10186C00001002400000014080B584B000AF7860E9
:10187C007B681B68B3F1804F13D10C4BDB690B4AAF
:10188C0043F00103D361094BDB6903F00103FB60F7
:10189C00FB68002200211C2000F0A1F91C2000F0A4
:1018AC00BAF900BF1037BD4680BD00BF0010024022
:1018BC0080B400AFFEE780B400AFFEE780B400AFA9
:1018CC00FEE780B400AFFEE780B400AFFEE780B463
:1018DC0000AF00BFBD4680BC704780B400AF00BFF6
:1018EC00BD4680BC704780B400AF00BFBD4680BC15
:1018FC00704780B500AF00F07FF800BF80BD0000DE
:10190C0080B500AF024800F0E7FF00BF80BD00BF0C
:10191C008C01002080B400AF00BFBD4680BC704776
:10192C000C480D490D4A002302E0D458C45004332E
:10193C00C4188C42F9D30A4A0A4C002301E0136004
:10194C000432A242FBD3FFF7E5FF01F00DFBFFF7DA
:10195C00C1FC7047000000207C00002018300008FB
:10196C007C000020D8010020FEE7000080B500AF0D
:10197C00084B1B68074A43F010031360032000F068
:10198C0023F90F2000F008F8FFF73CFF002318465E
:10199C0080BD00BF0020024080B582B000AF7860EF
:1019AC00124B1A68124B1B7819464FF47A73B3FB1F
:1019BC00F1F3B2FBF3F3184600F03BF90346002BAE
:1019CC0001D001230EE07B680F2B0AD80022796826
:1019DC004FF0FF3000F003F9064A7B6813600023D8
:1019EC0000E0012318460837BD4680BD700000207A
:1019FC00780000207400002080B400AF054B1B78E9
:101A0C001A46054B1B681344034A136000BFBD46BE
:101A1C0080BC704778000020D401002080B400AF57
:101A2C00024B1B681846BD4680BC7047D401002091
:101A3C0080B485B000AF78607B6803F00703FB606F
:101A4C000C4BDB68BB60BA684FF6FF031340BB60FE
:101A5C00FB681A02BB68134343F0BF6343F40033C3
:101A6C00BB60044ABB68D36000BF1437BD4680BC62
:101A7C00704700BF00ED00E080B400AF044BDB68A2
:101A8C001B0A03F007031846BD4680BC704700BF15
:101A9C0000ED00E080B483B000AF0346FB7197F912
:101AAC000730002B0BDBFB7903F01F02064997F97B
:101ABC0007305B09012000FA02F241F8232000BF35
:101ACC000C37BD4680BC704700E100E080B483B0A9
:101ADC0000AF03463960FB7197F90730002B0ADB26
:101AEC003B68DAB20C4997F907301201D2B20B44B9
:101AFC0083F800230AE03B68DAB20849FB7903F06B
:101B0C000F03043B1201D2B20B441A7600BF0C3700
:101B1C00BD4680BC704700BF00E100E000ED00E076
:101B2C0080B489B000AFF860B9607A60FB6803F0EC
:101B3C000703FB61FB69C3F10703042B28BF0423D4
:101B4C00BB61FB690433062B02D9FB69033B00E044
:101B5C0000237B614FF0FF32BB6902FA03F3DA43D7
:101B6C00BB681A407B699A404FF0FF317B6901FAE0
:101B7C0003F3D9437B680B40134318462437BD4607
:101B8C0080BC704780B582B000AF78607B68013B49
:101B9C00B3F1807F01D301230FE00A4A7B68013B3C
:101BAC0053600F214FF0FF30FFF790FF054B0022E1
:101BBC009A60044B07221A60002318460837BD466A
:101BCC0080BD00BF10E000E080B582B000AF78604F
:101BDC007868FFF72DFF00BF0837BD4680BD80B584
:101BEC0086B000AF0346B9607A60FB7300237B615B
:101BFC00FFF742FF78617A68B9687869FFF790FF60
:101C0C00024697F90F3011461846FFF75FFF00BFE9
:101C1C001837BD4680BD80B582B000AF0346FB715E
:101C2C0097F907301846FFF735FF00BF0837BD4658
:101C3C0080BD80B582B000AF78607868FFF7A2FFF6
:101C4C00034618460837BD4680BD000080B48BB0F3
:101C5C0000AF7860396000237B6200233B6248E16F
:101C6C0001227B6A02FA03F3FB613B681B68FA6989
:101C7C001340BB61BA69FB699A4240F037813B68FB
:101C8C005B68A34A93425ED0A14A934275D8A14A9D
:101C9C00934258D09F4A93426FD89F4A934252D056
:101CAC009D4A934269D89D4A93424CD09B4A934299
:101CBC0063D89B4A934246D0994A93425DD8122BE3
:101CCC002AD8122B59D801A252F823F0531D000820
:101CDC002D1D00083F1D0008811D0008871D0008F0
:101CEC00871D0008871D0008871D0008871D000838
:101CFC00871D0008871D0008871D0008871D000828
:101D0C00871D0008871D0008871D0008871D000817
:101D1C00351D0008491D0008824A934213D02CE05F
:101D2C003B68DB683B6229E03B68DB6804333B6261
:101D3C0024E03B68DB6808333B621FE03B68DB68F0
:101D4C000C333B621AE03B689B68002B02D10423E6
:101D5C003B6213E03B689B68012B05D108233B6277
:101D6C007B68FA691A6109E008233B627B68FA69AF
:101D7C005A6103E000233B6200E000BFBB69FF2B0C
:101D8C0001D87B6801E07B6804337B61BB69FF2B66
:101D9C0002D87B6A9B0002E07B6A083B9B003B619C
:101DAC007B691A680F213B6901FA03F3DB431A4084
:101DBC00396A3B6901FA03F31A437B691A603B6881
:101DCC005B6803F08053002B00F09080564B9B69AE
:101DDC00554A43F001039361534B9B6903F0010394
:101DEC00BB60BB68514A7B6A9B08023352F82330B4
:101DFC00FB607B6A03F003039B000F2202FA03F3E0
:101E0C00DB43FA681340FB607B68494A93420DD070
:101E1C007B68484A934207D07B68474A934201D17A
:101E2C00022304E0032302E0012300E000237A6A8A
:101E3C0002F0030292009340FA681343FB603B49A3
:101E4C007B6A9B080233FA6841F823203B685B6885
:101E5C0003F48033002B06D0384B1A683749BB6922
:101E6C0013430B6006E0354B1A68BB69DB433349FF
:101E7C0013400B603B685B6803F40033002B06D007
:101E8C002E4B5A682D49BB6913434B6006E02B4B14
:101E9C005A68BB69DB43294913404B603B685B685C
:101EAC0003F48013002B06D0244B9A682349BB699A
:101EBC0013438B6006E0214B9A68BB69DB431F49D7
:101ECC0013408B603B685B6803F40013002B06D057
:101EDC001A4BDA681949BB691343CB6006E0174B00
:101EEC00DA68BB69DB4315491340CB607B6A01336D
:101EFC007B623B681A687B6A22FA03F3002B7FF43F
:101F0C00AFAE00BF00BF2C37BD4680BC704700BFD2
:101F1C0000003210000031100000221000002110CF
:101F2C0000001210000011100010024000000140CF
:101F3C0000080140000C0140001001400004014069
:101F4C0080B485B000AF78600B467B807B689A6864
:101F5C007B881340002B02D00123FB7301E000238C
:101F6C00FB73FB7B18461437BD4680BC704780B4AE
:101F7C0083B000AF78600B467B8013467B707B7818
:101F8C00002B03D07A887B681A6103E07B881A04E3
:101F9C007B681A6100BF0C37BD4680BC704780B4AB
:101FAC0085B000AF78600B467B807B68DB68FB609C
:101FBC007A88FB6813401A04FB68D9437B880B4072
:101FCC001A437B681A6100BF1437BD4680BC70474A
:101FDC0080B586B000AF78607B68002B01D10123FF
:101FEC006CE27B681B6803F00103002B00F0878018
:101FFC00924B5B6803F00C03042B0CD08F4B5B688B
:10200C0003F00C03082B12D18C4B5B6803F4803368
:10201C00B3F5803F0BD1894B1B6803F40033002BC5
:10202C006CD07B685B68002B68D1012346E27B682F
:10203C005B68B3F5803F06D1804B1B687F4A43F445
:10204C00803313602EE07B685B68002B0CD17B4BDC
:10205C001B687A4A23F480331360784B1B68774AE9
:10206C0023F4802313601DE07B685B68B3F5A02F1D
:10207C000CD1724B1B68714A43F4802313606F4B75
:10208C001B686E4A43F4803313600BE06B4B1B6888
:10209C006A4A23F480331360684B1B68674A23F445
:1020AC00802313607B685B68002B13D0FFF7B6FCB2
:1020BC00386108E0FFF7B2FC02463B69D31A642B87
:1020CC0001D90323FAE15D4B1B6803F40033002BA9
:1020DC00F0D014E0FFF7A2FC386108E0FFF79EFC9B
:1020EC0002463B69D31A642B01D90323E6E1534B17
:1020FC001B6803F40033002BF0D100E000BF7B68B9
:10210C001B6803F00203002B63D04C4B5B6803F09D
:10211C000C03002B0BD0494B5B6803F00C03082B12
:10212C001CD1464B5B6803F48033002B16D1434B18
:10213C001B6803F00203002B05D07B681B69012B85
:10214C0001D00123BAE13D4B1B6823F0F8027B68F8
:10215C005B69DB00394913430B603AE07B681B6910
:10216C00002B20D0364B01221A60FFF757FC386148
:10217C0008E0FFF753FC02463B69D31A022B01D946
:10218C0003239BE12D4B1B6803F00203002BF0D0C3
:10219C002A4B1B6823F0F8027B685B69DB0027493C
:1021AC0013430B6015E0264B00221A60FFF736FC38
:1021BC00386108E0FFF732FC02463B69D31A022B68
:1021CC0001D903237AE11D4B1B6803F00203002B9A
:1021DC00F0D17B681B6803F00803002B3AD07B68B6
:1021EC009B69002B19D0174B01221A60FFF716FCC4
:1021FC00386108E0FFF712FC02463B69D31A022B48
:10220C0001D903235AE10D4B5B6A03F00203002B47
:10221C00F0D0012000F0A6FA1CE00A4B00221A6054
:10222C00FFF7FCFB38610FE0FFF7F8FB02463B6958
:10223C00D31A022B08D9032340E100BF001002403F
:10224C0000004242800442429E4B5B6A03F0020350
:10225C00002BE9D17B681B6803F00403002B00F012
:10226C00A6800023FB75974BDB6903F08053002B92
:10227C000DD1944BDB69934A43F08053D361914B5E
:10228C00DB6903F08053BB60BB680123FB758E4B8D
:10229C001B6803F48073002B18D18B4B1B688A4A84
:1022AC0043F480731360FFF7B9FB386108E0FFF764
:1022BC00B5FB02463B69D31A642B01D90323FDE01D
:1022CC00814B1B6803F48073002BF0D07B68DB68B8
:1022DC00012B06D17B4B1B6A7A4A43F00103136234
:1022EC002DE07B68DB68002B0CD1764B1B6A754AA2
:1022FC0023F001031362734B1B6A724A23F004032D
:10230C0013621CE07B68DB68052B0CD16D4B1B6AE0
:10231C006C4A43F0040313626A4B1B6A694A43F02C
:10232C00010313620BE0674B1B6A664A23F001033F
:10233C001362644B1B6A634A23F0040313627B68C9
:10234C00DB68002B15D0FFF769FB38610AE0FFF75B
:10235C0065FB02463B69D31A41F28832934201D99C
:10236C000323ABE0574B1B6A03F00203002BEED0A8
:10237C0014E0FFF753FB38610AE0FFF74FFB02460E
:10238C003B69D31A41F28832934201D9032395E079
:10239C004C4B1B6A03F00203002BEED1FB7D012B8F
:1023AC0005D1484BDB69474A23F08053D3617B68E6
:1023BC00DB69002B00F08180424B5B6803F00C035F
:1023CC00082B61D07B68DB69022B46D13F4B002286
:1023DC001A60FFF723FB386108E0FFF71FFB02468A
:1023EC003B69D31A022B01D9032367E0354B1B68D9
:1023FC0003F00073002BF0D17B681B6AB3F5803FB0
:10240C0008D1304B5B6823F400327B689B682D4904
:10241C0013434B602B4B5B6823F474127B68196A73
:10242C007B685B6A0B43274913434B60274B0122A4
:10243C001A60FFF7F3FA386108E0FFF7EFFA02468B
:10244C003B69D31A022B01D9032337E01D4B1B68C0
:10245C0003F00073002BF0D02FE01C4B00221A600D
:10246C00FFF7DCFA386108E0FFF7D8FA02463B695F
:10247C00D31A022B01D9032320E0124B1B6803F063
:10248C000073002BF0D118E07B68DB69012B01D1C4
:10249C00012313E00B4B5B68FB60FB6803F4803299
:1024AC007B681B6A9A4206D1FB6803F470127B6846
:1024BC005B6A9A4201D0012300E0002318461837CA
:1024CC00BD4680BD001002400070004060004242DA
:1024DC0080B584B000AF786039607B68002B01D187
:1024EC000123D0E06A4B1B6803F007033A689A4259
:1024FC0010D9674B1B6823F0070265493B681343EF
:10250C000B60634B1B6803F007033A689A4201D0D7
:10251C000123B8E07B681B6803F00203002B20D07A
:10252C007B681B6803F00403002B05D0594B5B68D8
:10253C00584A43F4E06353607B681B6803F008035C
:10254C00002B05D0534B5B68524A43F460535360E5
:10255C00504B5B6823F0F0027B689B684D4913433A
:10256C004B607B681B6803F00103002B40D07B6839
:10257C005B68012B07D1474B1B6803F40033002B1E
:10258C0015D101237FE07B685B68022B07D1414B9F
:10259C001B6803F00073002B09D1012373E03D4B42
:1025AC001B6803F00203002B01D101236BE0394BB4
:1025BC005B6823F003027B685B68364913434B600E
:1025CC00FFF72CFAF8600AE0FFF728FA0246FB68DE
:1025DC00D31A41F28832934201D9032353E02D4B95
:1025EC005B6803F00C027B685B689B009A42EBD142
:1025FC00274B1B6803F007033A689A4210D2244B0E
:10260C001B6823F0070222493B6813430B60204BE5
:10261C001B6803F007033A689A4201D0012332E0A9
:10262C007B681B6803F00403002B08D0194B5B6814
:10263C0023F4E0627B68DB68164913434B607B68CC
:10264C001B6803F00803002B09D0124B5B6823F4C2
:10265C0060527B681B69DB000E4913434B6000F032
:10266C0021F802460B4B5B681B0903F00F030A4968
:10267C00CB5C22FA03F3094A1360094B1B6818461A
:10268C00FFF78AF9002318461037BD4680BD00BFFE
:10269C0000200240001002400030000870000020B2
:1026AC007400002090B48AB000AF2A4B3C1D0FCBB5
:1026BC0084E80F0040F201233B800023FB610023E0
:1026CC00BB6100237B6200237B6100233B62224BB6
:1026DC005B68FB61FB6903F00C03042B02D0082B35
:1026EC0003D02DE01D4B3B622DE0FB699B0C03F0EE
:1026FC000F0307F12802134413F8243C7B61FB6998
:10270C0003F48033002B13D0134B5B685B0C03F08A
:10271C00010307F12802134413F8283CBB617B69C1
:10272C000E4A02FB03F2BB69B2FBF3F37B6204E0DB
:10273C007B690B4A02FB03F37B627B6A3B6202E020
:10274C00064B3B6200BF3B6A18462837BD4690BC1F
:10275C00704700BFE42F00080010024000127A00FE
:10276C0000093D0080B485B000AF78600A4B1B684F
:10277C000A4AA2FB03235B0A7A6802FB03F3FB60A1
:10278C0000BFFB685A1EFA60002BF9D100BF00BFD6
:10279C001437BD4680BC704770000020D34D6210CA
:1027AC0080B582B000AF78607B68002B01D101232B
:1027BC0041E07B6893F83D30DBB2002B06D17B689F
:1027CC00002283F83C207868FFF74EF87B680222E1
:1027DC0083F83D207B681A687B68043319461046E1
:1027EC0000F06AFA7B68012283F846207B6801229C
:1027FC0083F83E207B68012283F83F207B6801220E
:10280C0083F840207B68012283F841207B680122F9
:10281C0083F842207B68012283F843207B680122E5
:10282C0083F844207B68012283F845207B680122D1
:10283C0083F83D20002318460837BD4680BD0000B4
:10284C0080B485B000AF78607B6893F83D30DBB224
:10285C00012B01D0012335E07B68022283F83D2057
:10286C007B681B68DA687B681B6842F00102DA60DF
:10287C007B681B68164A934209D07B681B68B3F1CE
:10288C00804F04D07B681B68124A934211D17B683D
:10289C001B689B6803F00703FB60FB68062B10D0DA
:1028AC007B681B681A687B681B6842F001021A601F
:1028BC0007E07B681B681A687B681B6842F00102A2
:1028CC001A60002318461437BD4680BC704700BF01
:1028DC00002C01400004004080B582B000AF78604D
:1028EC007B681B681B6903F00203022B22D17B68F7
:1028FC001B68DB6803F00203022B1BD17B681B688F
:10290C006FF002021A617B6801221A777B681B68E0
:10291C009B6903F00303002B03D0786800F0B1F936
:10292C0005E0786800F0A4F9786800F0B3F97B68EA
:10293C0000221A777B681B681B6903F00403042BC5
:10294C0022D17B681B68DB6803F00403042B1BD1CA
:10295C007B681B686FF004021A617B6802221A778D
:10296C007B681B689B6903F44073002B03D0786869
:10297C0000F087F905E0786800F07AF9786800F0E3
:10298C0089F97B6800221A777B681B681B6903F046
:10299C000803082B22D17B681B68DB6803F0080353
:1029AC00082B1BD17B681B686FF008021A617B68CF
:1029BC0004221A777B681B68DB6903F00303002B86
:1029CC0003D0786800F05DF905E0786800F050F904
:1029DC00786800F05FF97B6800221A777B681B68C7
:1029EC001B6903F01003102B22D17B681B68DB687A
:1029FC0003F01003102B1BD17B681B686FF01002C7
:102A0C001A617B6808221A777B681B68DB6903F400
:102A1C004073002B03D0786800F033F905E0786838
:102A2C0000F026F9786800F035F97B6800221A77F7
:102A3C007B681B681B6903F00103012B0ED17B68BB
:102A4C001B68DB6803F00103012B07D17B681B6853
:102A5C006FF001021A617868FEF740FD7B681B6815
:102A6C001B6903F08003802B0ED17B681B68DB682D
:102A7C0003F08003802B07D17B681B686FF080020A
:102A8C001A61786800F067FA7B681B681B6903F0B1
:102A9C004003402B0ED17B681B68DB6803F04003BE
:102AAC00402B07D17B681B686FF040021A61786875
:102ABC0000F0F9F87B681B681B6903F02003202BDE
:102ACC000ED17B681B68DB6803F02003202B07D139
:102ADC007B681B686FF020021A61786800F032FA8C
:102AEC0000BF0837BD4680BD80B584B000AF7860AC
:102AFC0039607B6893F83C30012B01D10223B3E0A1
:102B0C007B68012283F83C207B68022283F83D20FD
:102B1C007B681B689B68FB60FB6823F07703FB609A
:102B2C00FB6823F47F43FB607B681B68FA689A6040
:102B3C003B681B68B3F5005F3ED0B3F5005F00F255
:102B4C008780B3F5805F00F08580B3F5805F7FD818
:102B5C00702B1AD0702B7BD8602B50D0602B77D871
:102B6C00502B3CD0502B73D8402B58D0402B6FD8C7
:102B7C00302B64D0302B6BD8202B60D0202B67D817
:102B8C00002B5CD0102B5AD062E07B6818683B6835
:102B9C0099683B685A683B68DB6800F05CF97B68B5
:102BAC001B689B68FB60FB6843F07703FB607B68EA
:102BBC001B68FA689A604EE07B6818683B689968F5
:102BCC003B685A683B68DB6800F045F97B681B681A
:102BDC009A687B681B6842F480429A603BE07B6891
:102BEC0018683B6859683B68DB681A4600F0BCF80B
:102BFC007B681B685021184600F013F92BE07B68AA
:102C0C0018683B6859683B68DB681A4600F0DAF8CC
:102C1C007B681B686021184600F003F91BE07B6899
:102C2C0018683B6859683B68DB681A4600F09CF8EA
:102C3C007B681B684021184600F0F3F80BE07B68BA
:102C4C001A683B681B681946104600F0EAF802E067
:102C5C0000BF00E000BF7B68012283F83D207B6849
:102C6C00002283F83C20002318461037BD4680BD57
:102C7C0080B483B000AF786000BF0C37BD4680BC19
:102C8C00704780B483B000AF786000BF0C37BD468E
:102C9C0080BC704780B483B000AF786000BF0C3745
:102CAC00BD4680BC704780B483B000AF786000BF75
:102CBC000C37BD4680BC704780B485B000AF7860DF
:102CCC0039607B681B68FB607B68254A934207D0A0
:102CDC007B68B3F1804F03D07B68224A934208D1C2
:102CEC00FB6823F07003FB603B685B68FA68134376
:102CFC00FB607B681A4A934207D07B68B3F1804F24
:102D0C0003D07B68174A934208D1FB6823F44073C5
:102D1C00FB603B68DB68FA681343FB60FB6823F0DD
:102D2C0080023B685B691343FB607B68FA681A603E
:102D3C003B689A687B68DA623B681A687B689A62BF
:102D4C007B68074A934203D13B681A697B681A6314
:102D5C007B6801225A6100BF1437BD4680BC7047A6
:102D6C00002C01400004004080B487B000AFF86034
:102D7C00B9607A60FB681B6A7B61FB681B6A23F095
:102D8C000102FB681A62FB689B693B613B6923F09B
:102D9C00F0033B617B681B013A6913433B617B6920
:102DAC0023F00A037B617A69BB6813437B61FB6880
:102DBC003A699A61FB687A691A6200BF1C37BD4692
:102DCC0080BC704780B487B000AFF860B9607A609F
:102DDC00FB681B6A23F01002FB681A62FB689B6994
:102DEC007B61FB681B6A3B617B6923F470437B61ED
:102DFC007B681B037A6913437B613B6923F0A00357
:102E0C003B61BB681B013A6913433B61FB687A6900
:102E1C009A61FB683A691A6200BF1C37BD4680BCD8
:102E2C00704780B485B000AF786039607B689B6870
:102E3C00FB60FB6823F07003FB603A68FB6813438C
:102E4C0043F00703FB607B68FA689A6000BF143795
:102E5C00BD4680BC704780B487B000AFF860B960E5
:102E6C007A603B60FB689B687B617B6923F47F43E2
:102E7C007B613B681A027B681A43BB6813437A690F
:102E8C0013437B61FB687A699A6000BF1C37BD46AF
:102E9C0080BC704780B485B000AF786039607B68C7
:102EAC0093F83C30012B01D1022341E07B680122D5
:102EBC0083F83C207B68022283F83D207B681B68EA
:102ECC005B68FB607B681B689B68BB60FB6823F0DE
:102EDC007003FB603B681B68FA681343FB607B68FC
:102EEC001B68FA685A607B681B68144A934209D0C5
:102EFC007B681B68B3F1804F04D07B681B68104A59
:102F0C0093420CD1BB6823F08003BB603B685B68C9
:102F1C00BA681343BB607B681B68BA689A607B68AD
:102F2C00012283F83D207B68002283F83C2000239B
:102F3C0018461437BD4680BC704700BF002C0140BA
:102F4C000004004080B483B000AF786000BF0C3741
:102F5C00BD4680BC704780B483B000AF786000BFC2
:102F6C000C37BD4680BC704770B500260C4D0D4C1F
:102F7C00641BA410A64209D100F022F800260A4DC9
:102F8C000A4C641BA410A64205D170BD55F8043B35
:102F9C0098470136EEE755F8043B98470136F2E7BF
:102FAC0010300008103000081030000814300008F1
:102FBC0003460244934200D1704703F8011BF9E722
:102FCC00F8B500BFF8BC08BC9E467047F8B500BF0A
:082FDC00F8BC08BC9E467047DA
:102FE40002030405060708090A0B0C0D0E0F101046
:102FF400407924301912027800100000000000000B
:0C30040000000000010203040607080998
:043010003101000882
:043014000D010008A2
:10301800000400000008000000100000002000006C
:103028000100000001000000010000000100000094
:103038000100000001000000010000000100000084
:103048000100000001000000010000000100000074
:103058000100000001000000010000000100000064
:103068002C0100002C0100002C0100002C010000A4
:103078003200000032000000320000003200000080
:0C3088000024F400100000000100000013
:040000050800192DA9
:00000001FF
